:100000000C9434000C94B7000C9446000C944600F9
:100010000C9446000C9446000C9446000C94460048
:100020000C9446000C9446000C9446000C94460038
:100030000C9446000C9446000C9438010C94460035
:100040000C9446000C9446000C94D0010C9446008D
:100050000C9446000C9448000C9446000C94460006
:100060000C9446000C94460011241FBECFEFD8E03C
:10007000DEBFCDBF21E0A0E0B1E001C01D92AD31F7
:10008000B207E1F70E94FA000C9410020C940000F1
:100090001F920F920FB60F9211242F933F938F93BD
:1000A0009F93809178009091790020910201309186
:1000B00003012817390720F490930301809302016C
:1000C00020910201309103012C543109281739077E
:1000D00060F490930301809302015F9A8091040180
:1000E000813081F08230D1F52AC05F98809104017F
:1000F000813051F018F0823021F130C081E08093DE
:1001000004012CC080E001C081E02091010190E059
:10011000022E02C0880F991F0A94E2F79091000105
:10012000892B809300012F5F283018F42093010160
:1001300015C01092010182E0809304010FC020E0FD
:1001400001C021E080910001982F9170921721F059
:100150008093B40010920001109204019F918F913E
:100160003F912F910F900FBE0F901F9018951F92E7
:100170000F920FB60F9211242F933F934F935F93DB
:100180006F937F938F939F93AF93BF93EF93FF935F
:100190008AE091E00E946C01E89881E0809305017B
:1001A000FF91EF91BF91AF919F918F917F916F914F
:1001B0005F914F913F912F910F900FBE0F901F9025
:1001C0001895ECE7F0E0808180648083EAE7F0E056
:1001D0008081886C80830895ECE7F0E09081907FC7
:1001E000890F80830895E9E6F0E080818360808351
:1001F000E89A08958AB18A688AB98BB18D608BB903
:100200000E9402020E945D010E94F3000E94E10030
:1002100080E00E94EC00E0EBF0E08081836280836C
:10022000E1EBF0E08081846080831092B4007894E8
:1002300086E091E00E946C01CAE7D0E0F89442E3C6
:1002400050E060E070E08AE091E00E947A0188234B
:1002500069F080910501882349F010920501789496
:10026000E099E09A888180648883E89A7894E6CF60
:100270001F920F920FB60F9211248F939F93AF93FB
:10028000BF9380910E0190910F01A0911001B09148
:1002900011010196A11DB11D80930E0190930F01D4
:1002A000A0931001B0931101BF91AF919F918F91D5
:1002B0000F900FBE0F901F90189584B5826084BD7B
:1002C00085B5836085BDEEE6F0E080818260808345
:1002D0008CE087BD7894089540910E0150910F01F4
:1002E0006091100170911101FC0140835183628380
:1002F000738308950F931F9300910E0110910F01C6
:100300002091100130911101FC0180819181A28125
:10031000B381081B190B2A0B3B0B81E0041715074F
:100320002607370708F480E01F910F910895E2E156
:10033000F1E090812181921316C020911401309137
:1003400015012730310579F4E92FF0E0EE5EFE4F1C
:1003500084839F5F909312019730F8F0E2E1F1E01F
:10036000108211820895A2E1B1E0E92FF0E0EE5E83
:10037000FE4F848312962D913C9113972F5F3F4F30
:1003800013963C932E9312979F5F973018F4909397
:100390001201089510921201089590931301089587
:1003A0001F920F920FB60F9211242F933F934F93EA
:1003B0005F936F937F938F939F93AF93BF93CF93ED
:1003C000DF93EF93FF93C1ECD0E088818F77888330
:1003D0008091C6000E949701888180688883FF9180
:1003E000EF91DF91CF91BF91AF919F918F917F91CD
:1003F0006F915F914F913F912F910F900FBE0F9092
:100400001F901895E1ECF0E0808188698083E2EC30
:10041000F0E080818660808383E38093C400089548
:04042000F894FFCF7E
:00000001FF
