S013000044454D4F44554C41544F522E73726563D1
S11300000C9434000C94D0000C9446000C944600DC
S11300100C9446000C9446000C9446000C94460044
S11300200C9446000C9446000C9446000C94460034
S11300300C9446000C9446000C9451010C94460018
S11300400C9446000C9446000C94E9010C94460070
S11300500C9446000C9448000C9446000C94460002
S11300600C9446000C94460011241FBECFEFD8E038
S1130070DEBFCDBF21E0A0E0B1E001C01D92AE31F2
S1130080B207E1F70E9413010C9429020C940000BA
S11300901F920F920FB60F9211242F933F934F93F9
S11300A05F938F939F938091780090917900209132
S11300B00301309104012817390720F490930401B7
S11300C08093030120910301309104012C543109E0
S11300D02817390768F490930401809303015F9A09
S11300E0809105018130A9F0823009F04EC033C0FF
S11300F05F9880910501813071F018F0823069F1C8
S113010044C081E080930501109202011092010124
S11301103CC080E001C081E02091000190E0022E0B
S113012002C0880F991F0A94E2F74091010150918F
S11301300201842B952B90930201809301012F5F80
S1130140203118F42093000120C01092000182E0B5
S1130150809305011AC080E001C081E02091010173
S11301603091020190E0A901417055278417950749
S113017051F0832F99278130910519F08F3F910514
S113018011F42093B400109205019F918F915F9117
S11301904F913F912F910F900FBE0F901F90189584
S11301A01F920F920FB60F9211242F933F934F93E8
S11301B05F936F937F938F939F93AF93BF93EF93CB
S11301C0FF938BE091E00E948501E89881E08093A1
S11301D00601FF91EF91BF91AF919F918F917F9114
S11301E06F915F914F913F912F910F900FBE0F90A0
S11301F01F901895ECE7F0E0808180648083EAE743
S1130200F0E08081886C80830895ECE7F0E09081D1
S1130210907F890F80830895E9E6F0E08081836010
S11302208083E89A08958AB18A688AB98BB18D600F
S11302308BB90E941B020E9476010E940C010E944D
S1130240FA0080E00E940501E0EBF0E08081836227
S11302508083E1EBF0E08081846080831092B400BD
S1130260789487E091E00E948501CAE7D0E0F89491
S113027042E350E060E070E08BE091E00E94930183
S1130280882369F080910601882349F010920601C1
S11302907894E099E09A888180648883E89A7894D5
S11302A0E6CF1F920F920FB60F9211248F939F9354
S11302B0AF93BF9380910F0190911001A091110110
S11302C0B09112010196A11DB11D80930F0190936D
S11302D01001A0931101B0931201BF91AF919F91AE
S11302E08F910F900FBE0F901F90189584B5826068
S11302F084BD85B5836085BDEEE6F0E080818260D3
S113030080838CE087BD7894089540910F015091CB
S113031010016091110170911201FC01408351831D
S11303206283738308950F931F9300910F011091BB
S113033010012091110130911201FC018081918101
S1130340A281B381081B190B2A0B3B0B81E0041714
S113035015072607370708F480E01F910F910895C9
S1130360E3E1F1E090812181921316C020911501FF
S1130370309116012730310579F4E92FF0E0ED5E74
S1130380FE4F84839F5F909313019730F8F0E3E16D
S1130390F1E0108211820895A3E1B1E0E92FF0E0C9
S11303A0ED5EFE4F848312962D913C9113972F5F3F
S11303B03F4F13963C932E9312979F5F973018F4F8
S11303C090931301089510921301089590931401CA
S11303D008951F920F920FB60F9211242F933F93FB
S11303E04F935F936F937F938F939F93AF93BF9339
S11303F0CF93DF93EF93FF93C1ECD0E088818F77A5
S113040088838091C6000E94B001888180688883B7
S1130410FF91EF91DF91CF91BF91AF919F918F9118
S11304207F916F915F914F913F912F910F900FBEEC
S11304300F901F901895E1ECF0E08081886980832B
S1130440E2ECF0E080818660808383E38093C400E3
S10904500895F894FFCFAB
S9030000FC
