:100000000C9434000C94F4000C9446000C944600BC
:100010000C9446000C9446000C9446000C94460048
:100020000C9446000C9446000C9446000C94460038
:100030000C9446000C9446000C9472010C944600FB
:100040000C9446000C9446000C940A020C94460052
:100050000C9446000C9448000C9446000C94460006
:100060000C9446000C94460011241FBECFEFD8E03C
:10007000DEBFCDBF21E0A0E0B1E001C01D92AC31F8
:10008000B207E1F70E9437010C944A020C94000079
:100090001F920F920FB60F9211242F933F934F93FD
:1000A0005F938F939F938091780090917900209136
:1000B0000501309106012817390720F090930601B9
:1000C000809305012091030130910401281739071D
:1000D00020F4909304018093030140910301509117
:1000E00004012091050130910601240F351F36953A
:1000F00027958217930798F090930401809303014A
:10010000885C910990930601809305015F9A809124
:1001100007018130F9F0823009F059C03DC0909359
:1001200006018093050188539F4F909304018093AB
:1001300003015F9880910701813071F018F08230DF
:1001400069F145C081E0809307011092020110928D
:1001500001013DC080E001C081E02091000190E0FC
:10016000022E02C0880F991F0A94E2F74091010104
:1001700050910201842B952B9093020180930101F1
:100180002F5F203118F42093000121C0109200014C
:1001900082E0809307011BC080E001C081E02091D4
:1001A00001013091020190E0A901417055278417A7
:1001B000950759F0832F99278230910519F08F3FC9
:1001C000910519F420952093B40010920701109224
:1001D00008019F918F915F914F913F912F910F90C7
:1001E0000FBE0F901F9018951F920F920FB60F928F
:1001F00011242F933F934F935F936F937F938F932C
:100200009F93AF93BF93EF93FF9389E091E00E9498
:10021000A601E89881E080930801FF91EF91BF91DA
:10022000AF919F918F917F916F915F914F913F918E
:100230002F910F900FBE0F901F901895ECE7F0E0F4
:10024000808180648083EAE7F0E08081886C80832D
:100250000895ECE7F0E09081907F890F8083089506
:10026000E9E6F0E0808183608083E89A08958AB1AE
:100270008A688AB98BB185608BB90E943C020E9462
:1002800097010E9430010E941E0180E00E94290116
:10029000E0EBF0E0808183638083E1EBF0E080813C
:1002A000846080838FEF8093B4007894CAE7D0E0B5
:1002B000F89442E350E060E070E089E091E00E9451
:1002C000B401882369F080910801882349F01092D5
:1002D00008017894E099E09A888180648883E89A9C
:1002E0007894E6CF1F920F920FB60F9211248F933E
:1002F0009F93AF93BF9380910D0190910E01A091B8
:100300000F01B09110010196A11DB11D80930D0147
:1003100090930E01A0930F01B0931001BF91AF9184
:100320009F918F910F900FBE0F901F90189584B5DD
:10033000826084BD85B5836085BDEEE6F0E0808196
:10034000826080838CE087BD7894089540910D0190
:1003500050910E0160910F0170911001FC014083DA
:1003600051836283738308950F931F9300910D014E
:1003700010910E0120910F0130911001FC0180813C
:100380009181A281B381081B190B2A0B3B0B81E0E1
:10039000041715072607370708F480E01F910F910F
:1003A0000895E1E1F1E090812181921316C020913E
:1003B0001301309114012730310579F4E92FF0E071
:1003C000EF5EFE4F84839F5F909311019730F8F0AA
:1003D000E1E1F1E0108211820895A1E1B1E0E92F9D
:1003E000F0E0EF5EFE4F848312962D913C911397BF
:1003F0002F5F3F4F13963C932E9312979F5F97303A
:1004000018F490931101089510921101089590939A
:10041000120108951F920F920FB60F9211242F937D
:100420003F934F935F936F937F938F939F93AF937C
:10043000BF93CF93DF93EF93FF93C1ECD0E088811C
:100440008F7788838091C6000E94D101888180685F
:100450008883FF91EF91DF91CF91BF91AF919F91F1
:100460008F917F916F915F914F913F912F910F905D
:100470000FBE0F901F901895E1ECF0E08081886925
:100480008083E2ECF0E080818660808383E3809368
:08049000C4000895F894FFCFA9
:00000001FF
